{
  "contractName": "MultiSig",
  "abi": [
    {
      "inputs": [
        {
          "internalType": "address[]",
          "name": "_approvers",
          "type": "address[]"
        },
        {
          "internalType": "uint256",
          "name": "_n",
          "type": "uint256"
        }
      ],
      "stateMutability": "nonpayable",
      "type": "constructor"
    },
    {
      "inputs": [],
      "name": "n",
      "outputs": [
        {
          "internalType": "uint256",
          "name": "",
          "type": "uint256"
        }
      ],
      "stateMutability": "view",
      "type": "function",
      "constant": true
    },
    {
      "inputs": [
        {
          "internalType": "uint256",
          "name": "",
          "type": "uint256"
        }
      ],
      "name": "transfers",
      "outputs": [
        {
          "internalType": "uint256",
          "name": "id",
          "type": "uint256"
        },
        {
          "internalType": "uint256",
          "name": "amount",
          "type": "uint256"
        },
        {
          "internalType": "uint256",
          "name": "approvals",
          "type": "uint256"
        },
        {
          "internalType": "bool",
          "name": "sent",
          "type": "bool"
        },
        {
          "internalType": "address payable",
          "name": "recipient",
          "type": "address"
        }
      ],
      "stateMutability": "view",
      "type": "function",
      "constant": true
    },
    {
      "inputs": [
        {
          "internalType": "uint256",
          "name": "_amount",
          "type": "uint256"
        },
        {
          "internalType": "address payable",
          "name": "_to",
          "type": "address"
        }
      ],
      "name": "createTransfer",
      "outputs": [],
      "stateMutability": "payable",
      "type": "function",
      "payable": true
    },
    {
      "inputs": [
        {
          "internalType": "uint256",
          "name": "_id",
          "type": "uint256"
        }
      ],
      "name": "sendTransfer",
      "outputs": [],
      "stateMutability": "nonpayable",
      "type": "function"
    }
  ],
  "bytecode": "0x608060405234801561001057600080fd5b506040516108653803806108658339818101604052604081101561003357600080fd5b810190808051604051939291908464010000000082111561005357600080fd5b8382019150602082018581111561006957600080fd5b825186602082028301116401000000008211171561008657600080fd5b8083526020830192505050908051906020019060200280838360005b838110156100bd5780820151818401526020810190506100a2565b505050509050016040526020018051906020019092919050505060005b825181101561015a5760016000808584815181106100f457fe5b602002602001015173ffffffffffffffffffffffffffffffffffffffff1673ffffffffffffffffffffffffffffffffffffffff16815260200190815260200160002060006101000a81548160ff02191690831515021790555080806001019150506100da565b508060018190555050506106f2806101736000396000f3fe60806040526004361061003f5760003560e01c80632e52d606146100445780634c12fa471461006f5780639377d711146100bd578063d1c68d1e14610140575b600080fd5b34801561005057600080fd5b5061005961017b565b6040518082815260200191505060405180910390f35b6100bb6004803603604081101561008557600080fd5b8101908080359060200190929190803573ffffffffffffffffffffffffffffffffffffffff169060200190929190505050610181565b005b3480156100c957600080fd5b506100f6600480360360208110156100e057600080fd5b8101908080359060200190929190505050610318565b6040518086815260200185815260200184815260200183151581526020018273ffffffffffffffffffffffffffffffffffffffff1681526020019550505050505060405180910390f35b34801561014c57600080fd5b506101796004803603602081101561016357600080fd5b810190808035906020019092919050505061037b565b005b60015481565b6000803373ffffffffffffffffffffffffffffffffffffffff1673ffffffffffffffffffffffffffffffffffffffff16815260200190815260200160002060009054906101000a900460ff16610222576040517f08c379a000000000000000000000000000000000000000000000000000000000815260040180806020018281038252603281526020018061068b6032913960400191505060405180910390fd5b6040518060a001604052806002548152602001838152602001600081526020016000151581526020018273ffffffffffffffffffffffffffffffffffffffff1681525060036000600254815260200190815260200160002060008201518160000155602082015181600101556040820151816002015560608201518160030160006101000a81548160ff02191690831515021790555060808201518160030160016101000a81548173ffffffffffffffffffffffffffffffffffffffff021916908373ffffffffffffffffffffffffffffffffffffffff1602179055509050506002600081548092919060010191905055505050565b60036020528060005260406000206000915090508060000154908060010154908060020154908060030160009054906101000a900460ff16908060030160019054906101000a900473ffffffffffffffffffffffffffffffffffffffff16905085565b6000803373ffffffffffffffffffffffffffffffffffffffff1673ffffffffffffffffffffffffffffffffffffffff16815260200190815260200160002060009054906101000a900460ff1661041c576040517f08c379a000000000000000000000000000000000000000000000000000000000815260040180806020018281038252603281526020018061068b6032913960400191505060405180910390fd5b6003600082815260200190815260200160002060030160009054906101000a900460ff16156104b3576040517f08c379a000000000000000000000000000000000000000000000000000000000815260040180806020018281038252601e8152602001807f7472616e736665722068617320616c7265616479206265656e2073656e74000081525060200191505060405180910390fd5b600460003373ffffffffffffffffffffffffffffffffffffffff1673ffffffffffffffffffffffffffffffffffffffff168152602001908152602001600020600082815260200190815260200160002060009054906101000a900460ff166105a5576001600460003373ffffffffffffffffffffffffffffffffffffffff1673ffffffffffffffffffffffffffffffffffffffff168152602001908152602001600020600083815260200190815260200160002060006101000a81548160ff02191690831515021790555060036000828152602001908152602001600020600201600081548092919060010191905055505b6001546003600083815260200190815260200160002060020154106106875760016003600083815260200190815260200160002060030160006101000a81548160ff0219169083151502179055506003600082815260200190815260200160002060030160019054906101000a900473ffffffffffffffffffffffffffffffffffffffff1673ffffffffffffffffffffffffffffffffffffffff166108fc60036000848152602001908152602001600020600101549081150290604051600060405180830381858888f19350505050158015610685573d6000803e3d6000fd5b505b5056fe6f6e6c7920617070726f766572732061726520616c6c6f77656420746f20617070726f7665207472616e73616374696f6e73a2646970667358221220c68f09dcf7d21a80acf5a203692bed5e90bc2f51f297895adeabb19e9e5948c464736f6c63430007050033",
  "immutableReferences": {},
  "source": "// SPDX-License-Identifier: MIT\npragma solidity ^0.7.5;\n\ncontract MultiSig {\n    struct Transfer {\n        uint id;\n        uint amount;\n        uint approvals;\n        bool sent;\n        address payable recipient;\n    }\n\n    // default value for bool is false\n    mapping(address => bool) approvers;\n\n    // the n requirement in 'n of m' signatures\n    uint public n;\n\n    // keeps track of the next id to use for Transfer objects\n    uint nextId;\n\n    // tracks pending/approved multisig transfers\n    mapping(uint => Transfer) public transfers;\n\n    // tracks what addresses have approved what transactions\n    // {<address>: {<transfer.id>: <address-approved-this-transfer>}}\n    mapping(address => mapping(uint => bool)) approvals;\n\n    modifier onlyApprover() {\n        require(approvers[msg.sender], 'only approvers are allowed to approve transactions');\n        _;\n    }\n\n    constructor(address[] memory _approvers, uint _n) {\n        for(uint i = 0; i < _approvers.length; i++) {\n            approvers[_approvers[i]] = true;\n        }\n        n = _n;\n    }\n\n    function createTransfer(uint _amount, address payable _to) external payable onlyApprover() {\n        transfers[nextId] = Transfer(nextId, _amount, 0, false, _to);\n        nextId++;\n    }\n\n    function sendTransfer(uint _id) external onlyApprover() {\n        require(!transfers[_id].sent, 'transfer has already been sent');\n\n        // Make sure that the approver only approves each transaction once\n        if(!approvals[msg.sender][_id]) {\n            approvals[msg.sender][_id] = true;\n            transfers[_id].approvals++;\n        }\n\n        if(transfers[_id].approvals >= n) {\n            transfers[_id].sent = true;\n            transfers[_id].recipient.transfer(transfers[_id].amount);\n        }\n    }\n}\n",
  "sourcePath": "/app/contracts/MultiSig.sol",
  "compiler": {
    "name": "solc",
    "version": "0.7.5+commit.eb77ed08.Emscripten.clang"
  },
  "schemaVersion": "3.3.2",
  "updatedAt": "2020-12-03T23:27:06.546Z",
  "networkType": "ethereum",
  "devdoc": {
    "kind": "dev",
    "methods": {},
    "version": 1
  },
  "userdoc": {
    "kind": "user",
    "methods": {},
    "version": 1
  }
}