{
  "contractName": "EtherWallet",
  "abi": [
    {
      "inputs": [
        {
          "internalType": "address",
          "name": "_owner",
          "type": "address"
        }
      ],
      "stateMutability": "nonpayable",
      "type": "constructor"
    },
    {
      "inputs": [],
      "name": "owner",
      "outputs": [
        {
          "internalType": "address",
          "name": "",
          "type": "address"
        }
      ],
      "stateMutability": "view",
      "type": "function",
      "constant": true
    },
    {
      "inputs": [],
      "name": "balanceOf",
      "outputs": [
        {
          "internalType": "uint256",
          "name": "",
          "type": "uint256"
        }
      ],
      "stateMutability": "view",
      "type": "function",
      "constant": true
    },
    {
      "inputs": [],
      "name": "deposit",
      "outputs": [],
      "stateMutability": "payable",
      "type": "function",
      "payable": true
    },
    {
      "inputs": [
        {
          "internalType": "address payable",
          "name": "_to",
          "type": "address"
        },
        {
          "internalType": "uint256",
          "name": "_amount",
          "type": "uint256"
        }
      ],
      "name": "send",
      "outputs": [],
      "stateMutability": "nonpayable",
      "type": "function"
    }
  ],
  "bytecode": "0x608060405234801561001057600080fd5b5060405161031f38038061031f8339818101604052602081101561003357600080fd5b8101908080519060200190929190505050806000806101000a81548173ffffffffffffffffffffffffffffffffffffffff021916908373ffffffffffffffffffffffffffffffffffffffff1602179055505061028b806100946000396000f3fe60806040526004361061003f5760003560e01c8063722713f7146100445780638da5cb5b1461006f578063d0679d34146100b0578063d0e30db01461010b575b600080fd5b34801561005057600080fd5b50610059610115565b6040518082815260200191505060405180910390f35b34801561007b57600080fd5b5061008461011d565b604051808273ffffffffffffffffffffffffffffffffffffffff16815260200191505060405180910390f35b3480156100bc57600080fd5b50610109600480360360408110156100d357600080fd5b81019080803573ffffffffffffffffffffffffffffffffffffffff16906020019092919080359060200190929190505050610141565b005b610113610253565b005b600047905090565b60008054906101000a900473ffffffffffffffffffffffffffffffffffffffff1681565b60008054906101000a900473ffffffffffffffffffffffffffffffffffffffff1673ffffffffffffffffffffffffffffffffffffffff163373ffffffffffffffffffffffffffffffffffffffff1614156101e1578173ffffffffffffffffffffffffffffffffffffffff166108fc829081150290604051600060405180830381858888f193505050501580156101db573d6000803e3d6000fd5b5061024f565b6040517f08c379a00000000000000000000000000000000000000000000000000000000081526004018080602001828103825260158152602001807f73656e646572206973206e6f7420616c6c6f776564000000000000000000000081525060200191505060405180910390fd5b5050565b56fea264697066735822122001ee595b6dd053496a2c20a2e02d8f42018eac6263bbc0410dafc41d685056dc64736f6c63430007050033",
  "immutableReferences": {},
  "source": "// SPDX-License-Identifier: MIT\npragma solidity ^0.7.5;\n\ncontract EtherWallet {\n    address public owner;\n\n    // `owner` will need to be set when this contract is deployed\n    constructor(address _owner) {\n        owner = _owner;\n    }\n\n    function balanceOf() view public returns(uint) {\n        return address(this).balance;\n    }\n\n    function deposit() payable public {}\n\n    function send(address payable _to, uint _amount) public {\n        if(msg.sender == owner) {\n            // send `_amount` ETH from this smart contract to the `_to` address\n            _to.transfer(_amount);\n        }\n        else {\n            revert('sender is not allowed');\n        }\n    }\n}\n\n/*\n$ docker exec -it eattheblocks_truffle_1 truffle console --network ropsten\n\ntruffle(ropsten)> const c = await EtherWallet.deployed();\n\ntruffle(ropsten)> c.address\n'0x97576cAd2D40DFa1a6B6e441523510005455b544'\n\n// deposit 0.1 ETH\ntruffle(ropsten)> c.deposit({from: '0x23dca59DB6A2FA829cD28f1D7b27b9e76791cBBF', value: 100000000000000000});\n\ntruffle(ropsten)> (await c.balanceOf()).toNumber()\n1\n\n// send 0.1 ETH from the contract owned by 0x23dc... to 0x72c...\ntruffle(ropsten)> c.send('0x72cb9E8142Fb7FA3618740B16eE2aE9F6e4815E6', '100000000000000000', {from: '0x23dca59DB6A2FA829cD28f1D7b27b9e76791cBBF'})\n*/",
  "sourcePath": "/app/contracts/EtherWallet.sol",
  "compiler": {
    "name": "solc",
    "version": "0.7.5+commit.eb77ed08.Emscripten.clang"
  },
  "schemaVersion": "3.3.2",
  "updatedAt": "2020-11-27T21:57:43.657Z",
  "networkType": "ethereum",
  "devdoc": {
    "kind": "dev",
    "methods": {},
    "version": 1
  },
  "userdoc": {
    "kind": "user",
    "methods": {},
    "version": 1
  }
}