{
  "contractName": "SplitPayment",
  "abi": [
    {
      "inputs": [
        {
          "internalType": "address",
          "name": "_owner",
          "type": "address"
        }
      ],
      "stateMutability": "nonpayable",
      "type": "constructor"
    },
    {
      "inputs": [],
      "name": "owner",
      "outputs": [
        {
          "internalType": "address",
          "name": "",
          "type": "address"
        }
      ],
      "stateMutability": "view",
      "type": "function",
      "constant": true
    },
    {
      "inputs": [
        {
          "internalType": "address payable[]",
          "name": "_to",
          "type": "address[]"
        },
        {
          "internalType": "uint256[]",
          "name": "_amounts",
          "type": "uint256[]"
        }
      ],
      "name": "send",
      "outputs": [],
      "stateMutability": "payable",
      "type": "function",
      "payable": true
    }
  ],
  "bytecode": "0x608060405234801561001057600080fd5b5060405161047f38038061047f8339818101604052602081101561003357600080fd5b8101908080519060200190929190505050806000806101000a81548173ffffffffffffffffffffffffffffffffffffffff021916908373ffffffffffffffffffffffffffffffffffffffff160217905550506103eb806100946000396000f3fe6080604052600436106100295760003560e01c80638da5cb5b1461002e578063a645ff5f1461006f575b600080fd5b34801561003a57600080fd5b506100436101bb565b604051808273ffffffffffffffffffffffffffffffffffffffff16815260200191505060405180910390f35b6101b96004803603604081101561008557600080fd5b81019080803590602001906401000000008111156100a257600080fd5b8201836020820111156100b457600080fd5b803590602001918460208302840111640100000000831117156100d657600080fd5b919080806020026020016040519081016040528093929190818152602001838360200280828437600081840152601f19601f8201169050808301925050505050505091929192908035906020019064010000000081111561013657600080fd5b82018360208201111561014857600080fd5b8035906020019184602083028401116401000000008311171561016a57600080fd5b919080806020026020016040519081016040528093929190818152602001838360200280828437600081840152601f19601f8201169050808301925050505050505091929192905050506101df565b005b60008054906101000a900473ffffffffffffffffffffffffffffffffffffffff1681565b60008054906101000a900473ffffffffffffffffffffffffffffffffffffffff1673ffffffffffffffffffffffffffffffffffffffff163373ffffffffffffffffffffffffffffffffffffffff16146102a0576040517f08c379a000000000000000000000000000000000000000000000000000000000815260040180806020018281038252601d8152602001807f6f6e6c79206f776e65722063616e2073656e64207472616e736665727300000081525060200191505060405180910390fd5b80518251146102fa576040517f08c379a00000000000000000000000000000000000000000000000000000000081526004018080602001828103825260308152602001806103866030913960400191505060405180910390fd5b60005b82518110156103805782818151811061031257fe5b602002602001015173ffffffffffffffffffffffffffffffffffffffff166108fc83838151811061033f57fe5b60200260200101519081150290604051600060405180830381858888f19350505050158015610372573d6000803e3d6000fd5b5080806001019150506102fd565b50505056fe5f746f20616e64205f616d6f756e7420617272617973206d7573742068617665207468652073616d65206c656e677468a26469706673582212200d14d42aede502e1c19ddabf0a3b522d35767d51a057960493d976f524eb5aac64736f6c63430007050033",
  "immutableReferences": {},
  "source": "// SPDX-License-Identifier: MIT\npragma solidity ^0.7.5;\n\ncontract SplitPayment {\n    address public owner;\n\n    constructor(address _owner) public {\n        owner = _owner;\n    }\n\n    modifier only_owner() {\n        require(msg.sender == owner, 'only owner can send transfers');\n        _;\n    }\n\n    function send(address payable[] memory _to, uint[] memory _amounts) public payable only_owner() {\n        require(_to.length == _amounts.length, '_to and _amount arrays must have the same length');\n\n        for(uint i = 0; i < _to.length; i++) {\n            _to[i].transfer(_amounts[i]);\n        }\n    }\n}\n",
  "sourcePath": "/app/contracts/SplitPayment.sol",
  "compiler": {
    "name": "solc",
    "version": "0.7.5+commit.eb77ed08.Emscripten.clang"
  },
  "schemaVersion": "3.3.2",
  "updatedAt": "2020-11-28T21:50:54.163Z",
  "networkType": "ethereum",
  "devdoc": {
    "kind": "dev",
    "methods": {},
    "version": 1
  },
  "userdoc": {
    "kind": "user",
    "methods": {},
    "version": 1
  }
}