{
  "contractName": "Deed",
  "abi": [
    {
      "inputs": [
        {
          "internalType": "address",
          "name": "_lawyer",
          "type": "address"
        },
        {
          "internalType": "address payable",
          "name": "_beneficiary",
          "type": "address"
        },
        {
          "internalType": "uint256",
          "name": "_fromNow",
          "type": "uint256"
        }
      ],
      "stateMutability": "payable",
      "type": "constructor",
      "payable": true
    },
    {
      "inputs": [],
      "name": "beneficiary",
      "outputs": [
        {
          "internalType": "address payable",
          "name": "",
          "type": "address"
        }
      ],
      "stateMutability": "view",
      "type": "function",
      "constant": true
    },
    {
      "inputs": [],
      "name": "eariest",
      "outputs": [
        {
          "internalType": "uint256",
          "name": "",
          "type": "uint256"
        }
      ],
      "stateMutability": "view",
      "type": "function",
      "constant": true
    },
    {
      "inputs": [],
      "name": "lawyer",
      "outputs": [
        {
          "internalType": "address",
          "name": "",
          "type": "address"
        }
      ],
      "stateMutability": "view",
      "type": "function",
      "constant": true
    },
    {
      "inputs": [],
      "name": "withdraw",
      "outputs": [],
      "stateMutability": "nonpayable",
      "type": "function"
    }
  ],
  "bytecode": "0x60806040526040516104003803806104008339818101604052606081101561002657600080fd5b81019080805190602001909291908051906020019092919080519060200190929190505050826000806101000a81548173ffffffffffffffffffffffffffffffffffffffff021916908373ffffffffffffffffffffffffffffffffffffffff16021790555081600160006101000a81548173ffffffffffffffffffffffffffffffffffffffff021916908373ffffffffffffffffffffffffffffffffffffffff160217905550804201600281905550505050610319806100e76000396000f3fe608060405234801561001057600080fd5b506004361061004c5760003560e01c806338af3eed146100515780633bfb6e31146100855780633ccfd60b146100b9578063a4245a3b146100c3575b600080fd5b6100596100e1565b604051808273ffffffffffffffffffffffffffffffffffffffff16815260200191505060405180910390f35b61008d610107565b604051808273ffffffffffffffffffffffffffffffffffffffff16815260200191505060405180910390f35b6100c161012b565b005b6100cb6102b2565b6040518082815260200191505060405180910390f35b600160009054906101000a900473ffffffffffffffffffffffffffffffffffffffff1681565b60008054906101000a900473ffffffffffffffffffffffffffffffffffffffff1681565b60008054906101000a900473ffffffffffffffffffffffffffffffffffffffff1673ffffffffffffffffffffffffffffffffffffffff163373ffffffffffffffffffffffffffffffffffffffff16146101cf576040517f08c379a000000000000000000000000000000000000000000000000000000000815260040180806020018281038252602b8152602001806102b9602b913960400191505060405180910390fd5b600254421015610247576040517f08c379a000000000000000000000000000000000000000000000000000000000815260040180806020018281038252601e8152602001807f796f752063616e6e6f742077697468647261772074686973206561726c79000081525060200191505060405180910390fd5b600160009054906101000a900473ffffffffffffffffffffffffffffffffffffffff1673ffffffffffffffffffffffffffffffffffffffff166108fc479081150290604051600060405180830381858888f193505050501580156102af573d6000803e3d6000fd5b50565b6002548156fe6f6e6c7920746865206c61777965722063616e20696e69746961746520746865207769746864726177616ca2646970667358221220fdd2d59eff6288ae70a1360a0ccdda31aec6a805285c511eb1ee24d3bab0088264736f6c63430007050033",
  "immutableReferences": {},
  "source": "// SPDX-License-Identifier: MIT\npragma solidity ^0.7.5;\n\ncontract Deed {\n    address public lawyer;\n    address payable public beneficiary;\n    uint public eariest;  // unix timestamp\n\n    constructor(address _lawyer, address payable _beneficiary, uint _fromNow) public payable {\n        lawyer = _lawyer;\n        beneficiary = _beneficiary;\n        // `block.timestamp` is a built-in that is the same as python's time.time()\n        eariest = block.timestamp + _fromNow;\n    }\n\n    function withdraw() public {\n        require(msg.sender == lawyer, 'only the lawyer can initiate the withdrawal');\n        require(block.timestamp  >= eariest, 'you cannot withdraw this early');\n\n        // send all ETH that has been sent to this contract to the beneficiary\n        beneficiary.transfer(address(this).balance);\n    }\n}\n\n/*\n left off at https://eattheblocks-pro.teachable.com/courses/588302/lectures/11391102\n @ 9:15\n*/\n",
  "sourcePath": "/app/contracts/Deed.sol",
  "compiler": {
    "name": "solc",
    "version": "0.7.5+commit.eb77ed08.Emscripten.clang"
  },
  "schemaVersion": "3.3.2",
  "updatedAt": "2020-11-29T20:32:12.537Z",
  "networkType": "ethereum",
  "devdoc": {
    "kind": "dev",
    "methods": {},
    "version": 1
  },
  "userdoc": {
    "kind": "user",
    "methods": {},
    "version": 1
  }
}