{
  "contractName": "DeedMultiPayout",
  "abi": [
    {
      "inputs": [
        {
          "internalType": "address payable",
          "name": "_beneficiary",
          "type": "address"
        },
        {
          "internalType": "uint256",
          "name": "_fromNow",
          "type": "uint256"
        }
      ],
      "stateMutability": "payable",
      "type": "constructor",
      "payable": true
    },
    {
      "inputs": [],
      "name": "INTERVAL",
      "outputs": [
        {
          "internalType": "uint256",
          "name": "",
          "type": "uint256"
        }
      ],
      "stateMutability": "view",
      "type": "function",
      "constant": true
    },
    {
      "inputs": [],
      "name": "PAYOUTS",
      "outputs": [
        {
          "internalType": "uint256",
          "name": "",
          "type": "uint256"
        }
      ],
      "stateMutability": "view",
      "type": "function",
      "constant": true
    },
    {
      "inputs": [],
      "name": "amountPerPayout",
      "outputs": [
        {
          "internalType": "uint256",
          "name": "",
          "type": "uint256"
        }
      ],
      "stateMutability": "view",
      "type": "function",
      "constant": true
    },
    {
      "inputs": [],
      "name": "beneficiary",
      "outputs": [
        {
          "internalType": "address payable",
          "name": "",
          "type": "address"
        }
      ],
      "stateMutability": "view",
      "type": "function",
      "constant": true
    },
    {
      "inputs": [],
      "name": "earliest",
      "outputs": [
        {
          "internalType": "uint256",
          "name": "",
          "type": "uint256"
        }
      ],
      "stateMutability": "view",
      "type": "function",
      "constant": true
    },
    {
      "inputs": [],
      "name": "paidPayouts",
      "outputs": [
        {
          "internalType": "uint256",
          "name": "",
          "type": "uint256"
        }
      ],
      "stateMutability": "view",
      "type": "function",
      "constant": true
    },
    {
      "inputs": [],
      "name": "withdraw",
      "outputs": [],
      "stateMutability": "nonpayable",
      "type": "function"
    }
  ],
  "bytecode": "0x60806040526040516104eb3803806104eb8339818101604052604081101561002657600080fd5b810190808051906020019092919080519060200190929190505050816000806101000a81548173ffffffffffffffffffffffffffffffffffffffff021916908373ffffffffffffffffffffffffffffffffffffffff1602179055508042016001819055506004348161009457fe5b04600281905550505061043f806100ac6000396000f3fe608060405234801561001057600080fd5b506004361061007d5760003560e01c80634a8a7ce31161005b5780634a8a7ce3146100de5780635dd65d3b146100fc57806389facb201461011a578063f1bac153146101385761007d565b80632be521461461008257806338af3eed146100a05780633ccfd60b146100d4575b600080fd5b61008a610156565b6040518082815260200191505060405180910390f35b6100a861015b565b604051808273ffffffffffffffffffffffffffffffffffffffff16815260200191505060405180910390f35b6100dc61017f565b005b6100e66103c2565b6040518082815260200191505060405180910390f35b6101046103c8565b6040518082815260200191505060405180910390f35b6101226103ce565b6040518082815260200191505060405180910390f35b6101406103d3565b6040518082815260200191505060405180910390f35b600481565b60008054906101000a900473ffffffffffffffffffffffffffffffffffffffff1681565b60008054906101000a900473ffffffffffffffffffffffffffffffffffffffff1673ffffffffffffffffffffffffffffffffffffffff163373ffffffffffffffffffffffffffffffffffffffff1614610223576040517f08c379a00000000000000000000000000000000000000000000000000000000081526004018080602001828103825260308152602001806103da6030913960400191505060405180910390fd5b60015442101561029b576040517f08c379a000000000000000000000000000000000000000000000000000000000815260040180806020018281038252601e8152602001807f796f752063616e6e6f742077697468647261772074686973206561726c79000081525060200191505060405180910390fd5b600460035410610313576040517f08c379a000000000000000000000000000000000000000000000000000000000815260040180806020018281038252600f8152602001807f6e6f207061796f757473206c656674000000000000000000000000000000000081525060200191505060405180910390fd5b60006001805442038161032257fe5b04905060006003548203905060046003541061033f576000610341565b805b90508060036000828254019250508190555060008054906101000a900473ffffffffffffffffffffffffffffffffffffffff1673ffffffffffffffffffffffffffffffffffffffff166108fc60025483029081150290604051600060405180830381858888f193505050501580156103bd573d6000803e3d6000fd5b505050565b60035481565b60015481565b600181565b6002548156fe6f6e6c79207468652062656e65666963696172792063616e20696e69746961746520746865207769746864726177616ca2646970667358221220ad6891a813994e1e8dfa7aadf9eaee373bbc1b8cc59523b16806b61354d60fc464736f6c63430007050033",
  "immutableReferences": {},
  "source": "// SPDX-License-Identifier: MIT\npragma solidity ^0.7.5;\n\ncontract DeedMultiPayout {\n    address payable public beneficiary;\n    uint public earliest;  // unix timestamp\n    uint public amountPerPayout; // the amount of WEI to be paid in each payout\n    uint constant public PAYOUTS = 4; // how many payouts will occur\n    uint constant public INTERVAL = 1; // seconds between each payout\n    uint public paidPayouts; // keeps track of how many payouts have occurred so far\n\n    constructor(address payable _beneficiary, uint _fromNow) public payable {\n        beneficiary = _beneficiary;\n        // `block.timestamp` is a built-in that is the same as python's time.time()\n        earliest = block.timestamp + _fromNow;\n        amountPerPayout = msg.value / PAYOUTS;\n    }\n\n    function withdraw() public {\n        require(msg.sender == beneficiary, 'only the beneficiary can initiate the withdrawal');\n        require(block.timestamp  >= earliest, 'you cannot withdraw this early');\n        require(paidPayouts < PAYOUTS, 'no payouts left');\n\n        // if we allow the beneficiary to withdraw after 1 second, but 3\n        // seconds has elapsed, allow them to withdraw 3 payouts.\n        uint eligiblePayouts = (block.timestamp - earliest) / INTERVAL;\n\n        // we need this to prevent the beneficiary from calling `withdraw`\n        // multiple times in quick succession.\n        uint duePayouts = eligiblePayouts - paidPayouts;\n\n//        duePayouts = duePayouts + paidPayouts > PAYOUTS ? PAYOUTS - paidPayouts : duePayouts;\n        duePayouts = paidPayouts < PAYOUTS ? duePayouts : 0;\n        paidPayouts += duePayouts;\n\n        beneficiary.transfer(duePayouts * amountPerPayout);\n    }\n}\n\n// left off at https://eattheblocks-pro.teachable.com/courses/588302/lectures/12012034 @ 3:16\n",
  "sourcePath": "/app/contracts/DeedMultiPayout.sol",
  "compiler": {
    "name": "solc",
    "version": "0.7.5+commit.eb77ed08.Emscripten.clang"
  },
  "schemaVersion": "3.3.2",
  "updatedAt": "2020-12-02T22:01:08.113Z",
  "networkType": "ethereum",
  "devdoc": {
    "kind": "dev",
    "methods": {},
    "version": 1
  },
  "userdoc": {
    "kind": "user",
    "methods": {},
    "version": 1
  }
}