{
  "contractName": "SimpleStorage",
  "abi": [
    {
      "inputs": [],
      "name": "data",
      "outputs": [
        {
          "internalType": "string",
          "name": "",
          "type": "string"
        }
      ],
      "stateMutability": "view",
      "type": "function",
      "constant": true
    },
    {
      "inputs": [
        {
          "internalType": "string",
          "name": "_data",
          "type": "string"
        }
      ],
      "name": "set",
      "outputs": [],
      "stateMutability": "nonpayable",
      "type": "function"
    },
    {
      "inputs": [],
      "name": "get",
      "outputs": [
        {
          "internalType": "string",
          "name": "",
          "type": "string"
        }
      ],
      "stateMutability": "view",
      "type": "function",
      "constant": true
    }
  ],
  "bytecode": "0x608060405234801561001057600080fd5b50610442806100206000396000f3fe608060405234801561001057600080fd5b50600436106100415760003560e01c80634ed3885e146100465780636d4ce63c1461010157806373d4a13a14610184575b600080fd5b6100ff6004803603602081101561005c57600080fd5b810190808035906020019064010000000081111561007957600080fd5b82018360208201111561008b57600080fd5b803590602001918460018302840111640100000000831117156100ad57600080fd5b91908080601f016020809104026020016040519081016040528093929190818152602001838380828437600081840152601f19601f820116905080830192505050505050509192919290505050610207565b005b610109610221565b6040518080602001828103825283818151815260200191508051906020019080838360005b8381101561014957808201518184015260208101905061012e565b50505050905090810190601f1680156101765780820380516001836020036101000a031916815260200191505b509250505060405180910390f35b61018c6102c3565b6040518080602001828103825283818151815260200191508051906020019080838360005b838110156101cc5780820151818401526020810190506101b1565b50505050905090810190601f1680156101f95780820380516001836020036101000a031916815260200191505b509250505060405180910390f35b806000908051906020019061021d929190610361565b5050565b606060008054600181600116156101000203166002900480601f0160208091040260200160405190810160405280929190818152602001828054600181600116156101000203166002900480156102b95780601f1061028e576101008083540402835291602001916102b9565b820191906000526020600020905b81548152906001019060200180831161029c57829003601f168201915b5050505050905090565b60008054600181600116156101000203166002900480601f0160208091040260200160405190810160405280929190818152602001828054600181600116156101000203166002900480156103595780601f1061032e57610100808354040283529160200191610359565b820191906000526020600020905b81548152906001019060200180831161033c57829003601f168201915b505050505081565b828054600181600116156101000203166002900490600052602060002090601f01602090048101928261039757600085556103de565b82601f106103b057805160ff19168380011785556103de565b828001600101855582156103de579182015b828111156103dd5782518255916020019190600101906103c2565b5b5090506103eb91906103ef565b5090565b5b808211156104085760008160009055506001016103f0565b509056fea26469706673582212201c78ba8e7abc552fd7b1c584471eb7034df96385ef1e3945a76cc4cb451c7ee864736f6c63430007050033",
  "immutableReferences": {},
  "source": "// SPDX-License-Identifier: MIT\npragma solidity ^0.7.5;\n\ncontract SimpleStorage {\n    string public data;\n\n    function set(string memory _data) public {\n        data = _data;\n    }\n\n    function get() view public returns(string memory) {\n        return data;\n    }\n}\n\n/*\ntruffle(development)> let c = await SimpleStorage.deployed()\n\ntruffle(development)> c.data()\n''\n\ntruffle(development)> c.set('this is the new value')\n{\n  tx: '0xee87468433977b2bbcd2f5b5148cf1bddad3e872d695583a40faf94c125aaf4b',\n  receipt: {\n    transactionHash: '0xee87468433977b2bbcd2f5b5148cf1bddad3e872d695583a40faf94c125aaf4b',\n    transactionIndex: 0,\n    blockHash: '0xd15a297452b4f2050405b342673c15ecaeceef5aabb0665d1ce953b747346714',\n    blockNumber: 9,\n    from: '0xfae3465ba8392ae10eb421ccc93cd80b9fe86bc1',\n    to: '0xc2a227572d27a93abae2cafd905e710404956b8c',\n    gasUsed: 43404,\n    cumulativeGasUsed: 43404,\n    contractAddress: null,\n    logs: [],\n    status: true,\n    logsBloom: '0x00000000000000000000000000000000000000000000000000000000000000000000000000000000000000000000000000000000000000000000000000000000000000000000000000000$00000000000000000000000000000000000000000000000000000000000000000000000000000000000000000000000000000000000000000000000000000000000000000000000000000000000000000000000$00000000000000000000000000000000000000000000000000000000000000000000000000000000000000000000000000000000000000000000000000000000000000000000000000000000000000000000000$00000000000000000000000000',\n    rawLogs: []\n  },\n  logs: []\n}\n\ntruffle(development)> c.data()\n'this is the new value'\n\ntruffle(development)> c.get()\n'this is the new value'\n*/",
  "sourcePath": "/app/contracts/SimpleStorage.sol",
  "compiler": {
    "name": "solc",
    "version": "0.7.5+commit.eb77ed08.Emscripten.clang"
  },
  "schemaVersion": "3.3.2",
  "updatedAt": "2020-11-25T02:25:36.801Z",
  "networkType": "ethereum",
  "devdoc": {
    "kind": "dev",
    "methods": {},
    "version": 1
  },
  "userdoc": {
    "kind": "user",
    "methods": {},
    "version": 1
  }
}