{
  "contractName": "Escrow",
  "abi": [
    {
      "inputs": [
        {
          "internalType": "address",
          "name": "_payer",
          "type": "address"
        },
        {
          "internalType": "address payable",
          "name": "_recipient",
          "type": "address"
        },
        {
          "internalType": "uint256",
          "name": "_amount",
          "type": "uint256"
        }
      ],
      "stateMutability": "nonpayable",
      "type": "constructor"
    },
    {
      "inputs": [],
      "name": "amount",
      "outputs": [
        {
          "internalType": "uint256",
          "name": "",
          "type": "uint256"
        }
      ],
      "stateMutability": "view",
      "type": "function",
      "constant": true
    },
    {
      "inputs": [],
      "name": "payer",
      "outputs": [
        {
          "internalType": "address",
          "name": "",
          "type": "address"
        }
      ],
      "stateMutability": "view",
      "type": "function",
      "constant": true
    },
    {
      "inputs": [],
      "name": "recipient",
      "outputs": [
        {
          "internalType": "address payable",
          "name": "",
          "type": "address"
        }
      ],
      "stateMutability": "view",
      "type": "function",
      "constant": true
    },
    {
      "inputs": [],
      "name": "thirdParty",
      "outputs": [
        {
          "internalType": "address",
          "name": "",
          "type": "address"
        }
      ],
      "stateMutability": "view",
      "type": "function",
      "constant": true
    },
    {
      "inputs": [],
      "name": "deposit",
      "outputs": [],
      "stateMutability": "payable",
      "type": "function",
      "payable": true
    },
    {
      "inputs": [],
      "name": "release",
      "outputs": [],
      "stateMutability": "nonpayable",
      "type": "function"
    },
    {
      "inputs": [],
      "name": "balanceOf",
      "outputs": [
        {
          "internalType": "uint256",
          "name": "",
          "type": "uint256"
        }
      ],
      "stateMutability": "view",
      "type": "function",
      "constant": true
    }
  ],
  "bytecode": "0x608060405234801561001057600080fd5b506040516106a33803806106a38339818101604052606081101561003357600080fd5b81019080805190602001909291908051906020019092919080519060200190929190505050336000806101000a81548173ffffffffffffffffffffffffffffffffffffffff021916908373ffffffffffffffffffffffffffffffffffffffff16021790555082600160006101000a81548173ffffffffffffffffffffffffffffffffffffffff021916908373ffffffffffffffffffffffffffffffffffffffff16021790555081600260006101000a81548173ffffffffffffffffffffffffffffffffffffffff021916908373ffffffffffffffffffffffffffffffffffffffff16021790555080600381905550505050610570806101336000396000f3fe6080604052600436106100705760003560e01c806386d1a69f1161004e57806386d1a69f14610122578063aa8c217c14610139578063d0e30db014610164578063e02ea4841461016e57610070565b8063123119cd1461007557806366d003ac146100b6578063722713f7146100f7575b600080fd5b34801561008157600080fd5b5061008a6101af565b604051808273ffffffffffffffffffffffffffffffffffffffff16815260200191505060405180910390f35b3480156100c257600080fd5b506100cb6101d5565b604051808273ffffffffffffffffffffffffffffffffffffffff16815260200191505060405180910390f35b34801561010357600080fd5b5061010c6101fb565b6040518082815260200191505060405180910390f35b34801561012e57600080fd5b50610137610203565b005b34801561014557600080fd5b5061014e61036e565b6040518082815260200191505060405180910390f35b61016c610374565b005b34801561017a57600080fd5b50610183610494565b604051808273ffffffffffffffffffffffffffffffffffffffff16815260200191505060405180910390f35b600160009054906101000a900473ffffffffffffffffffffffffffffffffffffffff1681565b600260009054906101000a900473ffffffffffffffffffffffffffffffffffffffff1681565b600047905090565b600354471461025d576040517f08c379a00000000000000000000000000000000000000000000000000000000081526004018080602001828103825260238152602001806104b96023913960400191505060405180910390fd5b60008054906101000a900473ffffffffffffffffffffffffffffffffffffffff1673ffffffffffffffffffffffffffffffffffffffff163373ffffffffffffffffffffffffffffffffffffffff1614610301576040517f08c379a000000000000000000000000000000000000000000000000000000000815260040180806020018281038252603081526020018061050b6030913960400191505060405180910390fd5b600260009054906101000a900473ffffffffffffffffffffffffffffffffffffffff1673ffffffffffffffffffffffffffffffffffffffff166108fc6003549081150290604051600060405180830381858888f1935050505015801561036b573d6000803e3d6000fd5b50565b60035481565b600160009054906101000a900473ffffffffffffffffffffffffffffffffffffffff1673ffffffffffffffffffffffffffffffffffffffff163373ffffffffffffffffffffffffffffffffffffffff1614610437576040517f08c379a00000000000000000000000000000000000000000000000000000000081526004018080602001828103825260188152602001807f73656e646572206d75737420626520746865207061796572000000000000000081525060200191505060405180910390fd5b600354471115610492576040517f08c379a000000000000000000000000000000000000000000000000000000000815260040180806020018281038252602f8152602001806104dc602f913960400191505060405180910390fd5b565b60008054906101000a900473ffffffffffffffffffffffffffffffffffffffff168156fe657363726f7720636f6e7472616374206973206e6f742066756c6c792066756e646564636f6e74726163742062616c616e63652063616e6e6f74206578636565642073706563696669656420616d6f756e746f6e6c7920746865207370656369666965642074686972642070617274792063616e2072656c656173652066756e6473a2646970667358221220a58388875cbb63d02e39e447d802ce1787e18d1775ddac607a52dcf3c3633ab964736f6c63430007050033",
  "immutableReferences": {},
  "source": "// SPDX-License-Identifier: MIT\npragma solidity ^0.7.5;\n\ncontract Escrow {\n    address public thirdParty;\n    address public payer;\n    address payable public recipient;\n    uint public amount;\n\n    constructor(address _payer, address payable _recipient, uint _amount) {\n        thirdParty = msg.sender;\n        payer = _payer;\n        recipient = _recipient;\n        amount = _amount;\n    }\n\n    function deposit() public payable {\n        require(msg.sender == payer, 'sender must be the payer');\n\n        // `address(this).balance` is already updated to reflect the incoming amount\n        // when we reach this point in the execution\n        require(address(this).balance <= amount, 'contract balance cannot exceed specified amount');\n    }\n\n    function release() public {\n        require(address(this).balance == amount, 'escrow contract is not fully funded');\n        require(msg.sender == thirdParty, 'only the specified third party can release funds');\n        recipient.transfer(amount);\n    }\n\n    function balanceOf() public view returns(uint) {\n        return address(this).balance;\n    }\n}\n\n",
  "sourcePath": "/app/contracts/Escrow.sol",
  "compiler": {
    "name": "solc",
    "version": "0.7.5+commit.eb77ed08.Emscripten.clang"
  },
  "schemaVersion": "3.3.2",
  "updatedAt": "2020-12-03T19:31:54.815Z",
  "networkType": "ethereum",
  "devdoc": {
    "kind": "dev",
    "methods": {},
    "version": 1
  },
  "userdoc": {
    "kind": "user",
    "methods": {},
    "version": 1
  }
}