{
  "contractName": "Strings",
  "abi": [
    {
      "inputs": [
        {
          "internalType": "string",
          "name": "_s1",
          "type": "string"
        },
        {
          "internalType": "string",
          "name": "_s2",
          "type": "string"
        }
      ],
      "name": "concatenate",
      "outputs": [
        {
          "internalType": "string",
          "name": "",
          "type": "string"
        }
      ],
      "stateMutability": "pure",
      "type": "function",
      "constant": true
    },
    {
      "inputs": [
        {
          "internalType": "string",
          "name": "_s",
          "type": "string"
        }
      ],
      "name": "length",
      "outputs": [
        {
          "internalType": "uint256",
          "name": "",
          "type": "uint256"
        }
      ],
      "stateMutability": "pure",
      "type": "function",
      "constant": true
    }
  ],
  "bytecode": "0x608060405234801561001057600080fd5b506103e4806100206000396000f3fe608060405234801561001057600080fd5b50600436106100365760003560e01c8063266001d31461003b578063436a66e714610206575b600080fd5b61018b6004803603604081101561005157600080fd5b810190808035906020019064010000000081111561006e57600080fd5b82018360208201111561008057600080fd5b803590602001918460018302840111640100000000831117156100a257600080fd5b91908080601f016020809104026020016040519081016040528093929190818152602001838380828437600081840152601f19601f8201169050808301925050505050505091929192908035906020019064010000000081111561010557600080fd5b82018360208201111561011757600080fd5b8035906020019184600183028401116401000000008311171561013957600080fd5b91908080601f016020809104026020016040519081016040528093929190818152602001838380828437600081840152601f19601f8201169050808301925050505050505091929192905050506102d5565b6040518080602001828103825283818151815260200191508051906020019080838360005b838110156101cb5780820151818401526020810190506101b0565b50505050905090810190601f1680156101f85780820380516001836020036101000a031916815260200191505b509250505060405180910390f35b6102bf6004803603602081101561021c57600080fd5b810190808035906020019064010000000081111561023957600080fd5b82018360208201111561024b57600080fd5b8035906020019184600183028401116401000000008311171561026d57600080fd5b91908080601f016020809104026020016040519081016040528093929190818152602001838380828437600081840152601f19601f82011690508083019250505050505050919291929050505061039d565b6040518082815260200191505060405180910390f35b606082826040516020018083805190602001908083835b6020831061030f57805182526020820191506020810190506020830392506102ec565b6001836020036101000a03801982511681845116808217855250505050505090500182805190602001908083835b60208310610360578051825260208201915060208101905060208303925061033d565b6001836020036101000a03801982511681845116808217855250505050505090500192505050604051602081830303815290604052905092915050565b60006060829050805191505091905056fea2646970667358221220cff622e146020642f81c44808f9507d2a122bf870f8a08ac2397059f0686d03e64736f6c63430007050033",
  "immutableReferences": {},
  "source": "// SPDX-License-Identifier: MIT\npragma solidity ^0.7.5;\n\ncontract Strings {\n    function concatenate(string memory _s1, string memory _s2) public pure returns(string memory) {\n        // this differs from the approach used in the eat the blocks tutorial\n        // found from https://ethereum.stackexchange.com/questions/729/how-to-concatenate-strings-in-solidity\n        return string(abi.encodePacked(_s1, _s2));\n    }\n\n    function length(string memory _s) public pure returns(uint) {\n        // This does not work because the string type does not have a length property.\n        // We need to cast it to a bytes type because then it _will_ have a length property.\n        // return _s.length;\n        bytes memory s_bytes = bytes(_s);\n        return s_bytes.length;\n    }\n}\n",
  "sourcePath": "/app/contracts/Strings.sol",
  "compiler": {
    "name": "solc",
    "version": "0.7.5+commit.eb77ed08.Emscripten.clang"
  },
  "schemaVersion": "3.3.2",
  "updatedAt": "2020-12-03T19:46:39.333Z",
  "networkType": "ethereum",
  "devdoc": {
    "kind": "dev",
    "methods": {},
    "version": 1
  },
  "userdoc": {
    "kind": "user",
    "methods": {},
    "version": 1
  }
}