{
  "contractName": "Crud",
  "abi": [
    {
      "inputs": [],
      "name": "nextId",
      "outputs": [
        {
          "internalType": "uint256",
          "name": "",
          "type": "uint256"
        }
      ],
      "stateMutability": "view",
      "type": "function",
      "constant": true
    },
    {
      "inputs": [
        {
          "internalType": "uint256",
          "name": "",
          "type": "uint256"
        }
      ],
      "name": "users",
      "outputs": [
        {
          "internalType": "uint256",
          "name": "id",
          "type": "uint256"
        },
        {
          "internalType": "string",
          "name": "name",
          "type": "string"
        }
      ],
      "stateMutability": "view",
      "type": "function",
      "constant": true
    },
    {
      "inputs": [
        {
          "internalType": "string",
          "name": "_name",
          "type": "string"
        }
      ],
      "name": "create",
      "outputs": [],
      "stateMutability": "nonpayable",
      "type": "function"
    },
    {
      "inputs": [
        {
          "internalType": "uint256",
          "name": "_id",
          "type": "uint256"
        }
      ],
      "name": "read",
      "outputs": [
        {
          "internalType": "uint256",
          "name": "",
          "type": "uint256"
        },
        {
          "internalType": "string",
          "name": "",
          "type": "string"
        }
      ],
      "stateMutability": "view",
      "type": "function",
      "constant": true
    },
    {
      "inputs": [
        {
          "internalType": "uint256",
          "name": "_id",
          "type": "uint256"
        },
        {
          "internalType": "string",
          "name": "_name",
          "type": "string"
        }
      ],
      "name": "update",
      "outputs": [],
      "stateMutability": "nonpayable",
      "type": "function"
    },
    {
      "inputs": [
        {
          "internalType": "uint256",
          "name": "_id",
          "type": "uint256"
        }
      ],
      "name": "destroy",
      "outputs": [],
      "stateMutability": "nonpayable",
      "type": "function"
    }
  ],
  "bytecode": "0x60806040526001805534801561001457600080fd5b5061084f806100246000396000f3fe608060405234801561001057600080fd5b50600436106100625760003560e01c8063365b98b21461006757806361b8ce8c146101155780639d11877014610133578063b6a46b3b14610161578063ed2e5a971461021c578063f745630f146102ca575b600080fd5b6100936004803603602081101561007d57600080fd5b810190808035906020019092919050505061038f565b6040518083815260200180602001828103825283818151815260200191508051906020019080838360005b838110156100d95780820151818401526020810190506100be565b50505050905090810190601f1680156101065780820380516001836020036101000a031916815260200191505b50935050505060405180910390f35b61011d61045b565b6040518082815260200191505060405180910390f35b61015f6004803603602081101561014957600080fd5b8101908080359060200190929190505050610461565b005b61021a6004803603602081101561017757600080fd5b810190808035906020019064010000000081111561019457600080fd5b8201836020820111156101a657600080fd5b803590602001918460018302840111640100000000831117156101c857600080fd5b91908080601f016020809104026020016040519081016040528093929190818152602001838380828437600081840152601f19601f8201169050808301925050505050505091929192905050506104a8565b005b6102486004803603602081101561023257600080fd5b8101908080359060200190929190505050610528565b6040518083815260200180602001828103825283818151815260200191508051906020019080838360005b8381101561028e578082015181840152602081019050610273565b50505050905090810190601f1680156102bb5780820380516001836020036101000a031916815260200191505b50935050505060405180910390f35b61038d600480360360408110156102e057600080fd5b81019080803590602001909291908035906020019064010000000081111561030757600080fd5b82018360208201111561031957600080fd5b8035906020019184600183028401116401000000008311171561033b57600080fd5b91908080601f016020809104026020016040519081016040528093929190818152602001838380828437600081840152601f19601f82011690508083019250505050505050919291929050505061061c565b005b6000818154811061039f57600080fd5b9060005260206000209060020201600091509050806000015490806001018054600181600116156101000203166002900480601f0160208091040260200160405190810160405280929190818152602001828054600181600116156101000203166002900480156104515780601f1061042657610100808354040283529160200191610451565b820191906000526020600020905b81548152906001019060200180831161043457829003601f168201915b5050505050905082565b60015481565b600061046c82610661565b90506000818154811061047b57fe5b90600052602060002090600202016000808201600090556001820160006104a29190610726565b50505050565b60006040518060400160405280600154815260200183815250908060018154018082558091505060019003906000526020600020906002020160009091909190915060008201518160000155602082015181600101908051906020019061051092919061076e565b50505060016000815480929190600101919050555050565b60006060600061053784610661565b90506000818154811061054657fe5b9060005260206000209060020201600001546000828154811061056557fe5b9060005260206000209060020201600101808054600181600116156101000203166002900480601f01602080910402602001604051908101604052809291908181526020018280546001816001161561010002031660029004801561060b5780601f106105e05761010080835404028352916020019161060b565b820191906000526020600020905b8154815290600101906020018083116105ee57829003601f168201915b505050505090509250925050915091565b600061062783610661565b9050816000828154811061063757fe5b9060005260206000209060020201600101908051906020019061065b92919061076e565b50505050565b600080600090505b6000805490508110156106b257826000828154811061068457fe5b90600052602060002090600202016000015414156106a55780915050610721565b8080600101915050610669565b506040517f08c379a00000000000000000000000000000000000000000000000000000000081526004018080602001828103825260138152602001807f5573657220646f6573206e6f742065786973740000000000000000000000000081525060200191505060405180910390fd5b919050565b50805460018160011615610100020316600290046000825580601f1061074c575061076b565b601f01602090049060005260206000209081019061076a91906107fc565b5b50565b828054600181600116156101000203166002900490600052602060002090601f0160209004810192826107a457600085556107eb565b82601f106107bd57805160ff19168380011785556107eb565b828001600101855582156107eb579182015b828111156107ea5782518255916020019190600101906107cf565b5b5090506107f891906107fc565b5090565b5b808211156108155760008160009055506001016107fd565b509056fea2646970667358221220f91933721114fbb593ca905e291a8817910a39d545056addfd3b8019a30414b364736f6c63430007050033",
  "immutableReferences": {},
  "source": "// SPDX-License-Identifier: MIT\npragma solidity ^0.7.5;\n\ncontract Crud {\n    struct User {\n        uint id;\n        string name;\n    }\n\n    User[] public users;\n\n    // Initialize variable starting at 1 because if a user is created with id == 0\n    // and then the user is deleted, users[0].id will still equal 0 because 0 is\n    // the default value for the uint type. For example `users[999].id` is also 0\n    // even though no user at that index exists.\n    uint public nextId = 1;\n\n    function create(string memory _name) public {\n        users.push(User(nextId, _name));\n        nextId++;\n    }\n\n    // string is a complex type so we need to specify the `memory` location\n    function read(uint _id) view public returns(uint, string memory) {\n        uint i = find(_id);\n        return(users[i].id, users[i].name);\n    }\n\n    function update(uint _id, string memory _name) public {\n        uint i = find(_id);\n        users[i].name = _name;\n    }\n\n    function destroy(uint _id) public {\n        uint i = find(_id);\n        delete users[i];\n    }\n\n    function find(uint _id) view internal returns(uint) {\n        for (uint i = 0; i < users.length; i++) {\n            if(users[i].id == _id) {\n                return i;\n            }\n        }\n        revert('User does not exist');\n    }\n}\n",
  "sourcePath": "/app/contracts/Crud.sol",
  "compiler": {
    "name": "solc",
    "version": "0.7.5+commit.eb77ed08.Emscripten.clang"
  },
  "schemaVersion": "3.3.2",
  "updatedAt": "2020-11-27T19:36:06.832Z",
  "networkType": "ethereum",
  "devdoc": {
    "kind": "dev",
    "methods": {},
    "version": 1
  },
  "userdoc": {
    "kind": "user",
    "methods": {},
    "version": 1
  }
}